:100000000C9434000C9451000C9451000C94510049
:100010000C94F9010C9451000C9451000C94510073
:100020000C9451000C9402010C9451000C9451005A
:100030000C9451000C9451000C9451000C945100FC
:100040000C9451000C9451000C9451000C945100EC
:100050000C9451000C9451000C9451000C945100DC
:100060000C9451000C94510011241FBECFEFD4E02A
:10007000DEBFCDBF12E0A0E0B1E0E8E4FEE002C0E8
:1000800005900D92A031B107D9F712E0A0E1B2E0DE
:1000900001C01D92A832B107E1F70E942E020C9414
:1000A00022070C9400009C01161617062CF470937E
:1000B0001D0260931C0214C06115710569F0109255
:1000C0001D0210921C0288279927861B970B90937C
:1000D0001B0280931A0208C010921D0210921C028B
:1000E00010921B0210921A0280910201909103015A
:1000F0002817390739F480911C0287BD80911A02B4
:1001000088BD089580911C0290911D0290938900F2
:100110008093880080911A0290911B0290938B002B
:1001200080938A0008958091140290911502892B82
:1001300031F481E090E090932702809326020895A5
:10014000CF93DF93EC018230910589F48091020115
:10015000909103016FEF70E00E94530080910001C5
:10016000909101016FEF70E00E94530036C0833020
:10017000910579F4809102019091030161E07FEF94
:100180000E945300809100019091010161E07FEF96
:1001900034C08430910579F480910201909103017B
:1001A00064E670E00E94530080910001909101018B
:1001B00066EF7FEF22C08530910579F480910201CE
:1001C0009091030166EF7FEF0E9453008091000140
:1001D0009091010164E670E010C0219781F4809154
:1001E00002019091030160E070E00E945300809151
:1001F00000019091010160E070E00E945300DF91E6
:10020000CF9108951F920F920FB60F9211248F93E2
:100210009F9386E08093B20080911002909111022A
:1002200001969093110280931002049769F4109242
:100230001102109210028091120290911302019605
:1002400090931302809312029F918F910F900FBE93
:100250000F901F90189580911202909113020895AB
:10026000EF92FF920F931F9380911E0290911F02B5
:10027000009709F05FC08091160290911702892BB8
:1002800049F180910401909105019093250280939A
:10029000240283E090E090931F0280931E026091FD
:1002A00012027091130280E090E00E947D0420E031
:1002B00030E040E050E40E942004609320027093FC
:1002C000210280932202909323021092170210922F
:1002D00016028AC08091180290911902892B09F4A4
:1002E00083C080910601909107019093250280932D
:1002F000240283E090E090931F0280931E0260919D
:1003000012027091130280E090E00E947D0420E0D0
:1003100030E040E050E40E9420046093200270939B
:1003200021028093220290932302109219021092CC
:1003300018025AC083309105E1F560911202709164
:10034000130280E090E00E947D047B018C012091EB
:1003500020023091210240912202509123020E94FA
:100360004D0418160CF040C0209124023091250253
:1003700080910401909105012817390719F484E050
:1003800090E002C085E090E090931F0280931E02EF
:10039000C801B70120E030E040E85FE30E9420049C
:1003A0006093200270932102809322029093230293
:1003B0001BC004970297C0F460911202709113025F
:1003C00080E090E00E947D04209120023091210283
:1003D00040912202509123020E944D04181624F4E9
:1003E00010921F0210921E021F910F91FF90EF902A
:1003F00008951F920F920FB60F9211242F933F93DF
:100400008F939F9386B184FD0FC020E030E08091F0
:10041000140290911502892B11F421E030E0309301
:1004200015022093140211C083FD07C081E090E003
:10043000909317028093160208C082FD06C081E0E7
:1004400090E090931902809318029F918F913F91B1
:100450002F910F900FBE0F901F901895CF92DF92A3
:10046000EF92FF920F931F93CF93DF9321EC24BD64
:1004700092E095BD17BC80E48AB984B5806384BDE1
:1004800018BC559A209380009093810010928B00A5
:1004900010928A0084E084B9809180008063809308
:1004A00080001092890010928800219A80E88FBF06
:1004B0009093B1001092B20081E08093700090930D
:1004C00068008CE180936C0088B981E0C82ED12C43
:1004D0008091140290911502892BA1F110921F02B4
:1004E00010921E021092270210922602EE24EA9425
:1004F000FE2C8091140290911502892B21F4D09248
:100500002702C09226020E943001C0912602D0919B
:100510002702209719F000E010E00AC0C0911E02E7
:10052000D0911F02209711F4C2E0D0E001E010E06A
:10053000CE15DF0519F0CE010E94A0007E01012B2F
:1005400039F2D7CFFFCFA0E0B0E0E9EAF2E00C94B7
:10055000EB06DC012B01FA019C91923008F439C1C1
:10056000EB018881823008F433C1943069F484301F
:1005700009F02FC111969C9111978981981709F460
:1005800028C1A8E0B1E025C1843009F421C182303E
:10059000A9F4923009F01DC19A01AD0188E0EA0189
:1005A0000990AE01E90109929E018150C1F7E20173
:1005B000898111969C918923818308C1923009F425
:1005C00007C112962D903C901397EB018A819B8175
:1005D0001496AD90BD90CD90DC901797EC80FD8087
:1005E0000E811F819101281B390BB90137FF04C00F
:1005F00066277727621B730B603271050CF061C0B0
:10060000121613066CF537014801062E04C09694A5
:100610008794779467940A94D2F721E030E040E021
:1006200050E004C0220F331F441F551F6A95D2F7B4
:1006300021503040404050402E213F214023512343
:10064000211531054105510521F021E030E040E060
:1006500050E079018A01E628F728082919293CC0C9
:10066000232BD1F1260E371E35014601062E04C07C
:1006700096948794779467940A94D2F721E030E0B7
:1006800040E050E004C0220F331F441F551F6A95FD
:10069000D2F721503040404050402A213B214C218C
:1006A0005D21211531054105510521F021E030E0A2
:1006B00040E050E059016A01A628B728C828D92887
:1006C0000BC0821593052CF01C01AA24BB246501E4
:1006D00003C0EE24FF24870111969C91D20111964C
:1006E0008C91981709F445C0992339F0A801970116
:1006F0002A193B094C095D0906C0A60195012E196E
:100700003F09400B510B57FD08C0118233822282F2
:1007100024833583468357831DC081E081833382E0
:10072000228288279927DC01821B930BA40BB50B2F
:1007300084839583A683B7830DC0220F331F441F84
:10074000551F248335834683578382819381019784
:10075000938382832481358146815781DA01C901DF
:100760000197A109B1098F5F9F4FAF4FBF4328F396
:100770000BC0918333822282EA0CFB1C0C1D1D1DD1
:10078000E482F5820683178383E0808324813581A8
:100790004681578157FF1AC0C901AA2797FDA09526
:1007A000BA2F81709070A070B070569547953795AC
:1007B0002795822B932BA42BB52B84839583A6831B
:1007C000B78382819381019693838283DF0101C085
:1007D000D201CD01CDB7DEB7E2E10C940707A0E26C
:1007E000B0E0E5EFF3E00C94F70669837A838B833E
:1007F0009C832D833E834F835887E9E0EE2EF12CB6
:10080000EC0EFD1ECE010196B7010E941A068E0164
:100810000F5E1F4FCE010596B8010E941A068A8905
:1008200091E089278A8BC701B801AE01475E5F4F0F
:100830000E94A3020E944505A096E6E00C941307CF
:10084000A0E2B0E0E6E2F4E00C94F70669837A8374
:100850008B839C832D833E834F835887F9E0EF2E53
:10086000F12CEC0EFD1ECE010196B7010E941A0676
:100870008E010F5E1F4FCE010596B8010E941A0629
:10088000C701B801AE01475E5F4F0E94A3020E94FC
:100890004505A096E6E00C941307A8E1B0E0E3E577
:1008A000F4E00C94F70669837A838B839C832D8311
:1008B0003E834F83588789E0E82EF12CEC0EFD1E15
:1008C000CE010196B7010E941A068E010F5E1F4FDE
:1008D000CE010596B8010E941A068985823040F043
:1008E0008989823028F0C701B8010E94920601C0B0
:1008F0008FEF6896E6E00C941307A8E0B0E0E3E819
:10090000F4E00C94F3067B018C01611571058105FF
:10091000910519F482E0898360C083E089838EE1C8
:10092000C82ED12CDC82CB82ED82FE820F83188709
:10093000C801B7010E94F604FC013197F7FF3BC0E4
:10094000222733272E1B3F0B57016801022E04C0BC
:10095000D694C794B794A7940A94D2F740E050E095
:1009600060E070E081E090E0A0E0B0E004C0880FBB
:10097000991FAA1FBB1F2A95D2F70197A109B10998
:100980008E219F21A023B1230097A105B10521F05D
:1009900041E050E060E070E04A295B296C297D2944
:1009A0004D835E836F8378878EE190E08E1B9F0B73
:1009B0009C838B8312C0309781F00E2E04C0EE0C06
:1009C000FF1C001F111F0A94D2F7ED82FE820F83D5
:1009D0001887CE1ADF0ADC82CB821A82CE010196FA
:1009E0000E9445052896EAE00C940F07EF92FF92CB
:1009F0000F931F937B018C0180E0E81680E0F806DE
:100A000081E0080780E0180788F48FEFE816F1040A
:100A10000105110531F028F088E090E0A0E0B0E099
:100A200017C080E090E0A0E0B0E012C080E0E816DF
:100A300080E0F80680E0080781E0180728F088E1E8
:100A400090E0A0E0B0E004C080E190E0A0E0B0E081
:100A500020E230E040E050E0281B390B4A0B5B0BF2
:100A600004C016950795F794E7948A95D2F7F70195
:100A7000E05FFE4F8081281B310941095109C901FE
:100A80001F910F91FF90EF900895DF92EF92FF92E8
:100A90000F931F93FC01E480F58006811781D180BC
:100AA0008081823048F480E090E0A0E1B0E0E82A64
:100AB000F92A0A2B1B2BA5C0843009F49FC0823071
:100AC00021F4EE24FF24870105C0E114F10401059F
:100AD000110519F4E0E0F0E096C0628173819FEFA8
:100AE000623879070CF05BC022E83FEF261B370B1A
:100AF0002A3131052CF020E030E040E050E02AC0FF
:100B0000B801A701022E04C07695679557954795C1
:100B10000A94D2F781E090E0A0E0B0E004C0880F32
:100B2000991FAA1FBB1F2A95D2F70197A109B109E6
:100B30008E219F21A023B1230097A105B10521F0AB
:100B400081E090E0A0E0B0E09A01AB01282B392BC6
:100B50004A2B5B2BDA01C9018F779070A070B070BF
:100B600080349105A105B10539F427FF09C0205C47
:100B70003F4F4F4F5F4F04C0215C3F4F4F4F5F4F80
:100B8000E0E0F0E02030A0E03A07A0E04A07A0E46F
:100B90005A0710F0E1E0F0E079018A0127C06038DF
:100BA000710564F5FB01E158FF4FD801C7018F774C
:100BB0009070A070B07080349105A105B10539F432
:100BC000E7FE0DC080E490E0A0E0B0E004C08FE359
:100BD00090E0A0E0B0E0E80EF91E0A1F1B1F17FF0F
:100BE00005C016950795F794E794319687E016951A
:100BF0000795F794E7948A95D1F705C0EE24FF2472
:100C00008701EFEFF0E06E2F679566276795902FCD
:100C10009F77D794DD24D7948E2F8695492F462B26
:100C2000582F5D29B701CA011F910F91FF90EF90D6
:100C3000DF900895FC01DB01408151812281622F08
:100C40006F7770E0221F2227221F9381892F880F40
:100C5000822B282F30E0991F9927991F11969C937A
:100C6000119721153105A9F541155105610571054A
:100C700011F482E037C082E89FEF13969C938E9325
:100C800012979A01AB0167E0220F331F441F551FD3
:100C90006A95D1F783E08C930DC0220F331F441F58
:100CA000551F12968D919C911397019713969C93C3
:100CB0008E931297203080E0380780E0480780E468
:100CC000580758F314962D933D934D935C931797C3
:100CD00008952F3F310579F44115510561057105DE
:100CE00019F484E08C93089564FF03C081E08C9331
:100CF00012C01C9210C02F57304013963C932E9375
:100D0000129783E08C9387E0440F551F661F771F6F
:100D10008A95D1F7706414964D935D936D937C938F
:100D2000179708951F93DC01FB019C91923008F402
:100D300047C08081823008F443C0943051F411964A
:100D40001C91843099F58181682F70E0611B7109D5
:100D50003FC0843021F0923031F48230B9F181818A
:100D6000882389F12DC011961C9111978230F1F0E2
:100D700081811817D9F412962D913C911397828195
:100D800093818217930794F028173907BCF01496C3
:100D90008D919D910D90BC91A02D2481358146812E
:100DA0005781281739074A075B0718F4112341F0C8
:100DB0000AC082179307A407B50740F4112319F05E
:100DC00061E070E005C06FEF7FEF02C060E070E0AF
:100DD000CB011F9108952F923F924F925F926F9295
:100DE0007F928F929F92AF92BF92CF92DF92EF92BB
:100DF000FF920F931F93CF93DF93CDB7DEB7CA1B3C
:100E0000DB0B0FB6F894DEBF0FBECDBF09942A8866
:100E1000398848885F846E847D848C849B84AA840E
:100E2000B984C884DF80EE80FD800C811B81AA819B
:100E3000B981CE0FD11D0FB6F894DEBF0FBECDBF66
:080E4000ED010895F894FFCFC5
:100E48000100020007000F00000000000000000081
:100E58000001020203030303040404040404040459
:100E6800050505050505050505050505050505052A
:100E7800060606060606060606060606060606060A
:100E880006060606060606060606060606060606FA
:100E980007070707070707070707070707070707DA
:100EA80007070707070707070707070707070707CA
:100EB80007070707070707070707070707070707BA
:100EC80007070707070707070707070707070707AA
:100ED800080808080808080808080808080808088A
:100EE800080808080808080808080808080808087A
:100EF800080808080808080808080808080808086A
:100F08000808080808080808080808080808080859
:100F18000808080808080808080808080808080849
:100F28000808080808080808080808080808080839
:100F38000808080808080808080808080808080829
:100F48000808080808080808080808080808080819
:040000050080021461
:00000001FF
