:100000000C9434000C9451000C9451000C94510049
:100010000C948F000C9451000C9451000C945100DE
:100020000C9451000C9451000C9451000C9451000C
:100030000C9451000C9451000C9451000C945100FC
:100040000C9451000C9451000C9451000C945100EC
:100050000C9451000C9451000C9451000C945100DC
:100060000C9451000C94510011241FBECFEFD4E02A
:10007000DEBFCDBF11E0A0E0B1E0E8E7F2E002C0F2
:1000800005900D92A030B107D9F711E0A0E0B1E0E2
:1000900001C01D92A630B107E1F70E9411010C9436
:1000A0003A010C9400009C01161617062CF470936C
:1000B00005016093040114C06115710569F0109287
:1000C00005011092040188279927861B970B9093AE
:1000D00003018093020108C01092050110920401EF
:1000E00010920301109202012130310539F4809100
:1000F000040187BD8091020188BD089580910401AB
:10010000909105019093890080938800809102016D
:100110009091030190938B0080938A0008951F9221
:100120000F920FB60F9211242F933F934F935F932B
:100130006F937F938F939F93AF93BF93EF93FF93AF
:1001400034995EC0809100019091010101969093D5
:10015000010180930001039724F010920101109295
:10016000000180910001909101018130910509F415
:100170003BC08230910571F0892B09F041C081E0CC
:1001800090E060E070E00E94530082E090E060E068
:1001900070E034C081E090E061E07FEF0E945300A6
:1001A00082E090E061E07FEF0E94530088E893E1F5
:1001B00028EC30E0F9013197F1F70197D9F781E0A8
:1001C00090E06FEF70E00E94530082E090E066EFF5
:1001D0007FEF0E94530084EC99E028EC30E0F901B5
:1001E0003197F1F70197D9F781E090E06FEF70E078
:1001F0000E94530082E090E06FEF70E00E94530095
:10020000FF91EF91BF91AF919F918F917F916F91EE
:100210005F914F913F912F910F900FBE0F901F90C4
:10022000189521EC24BD92E095BD17BC80E48AB9F5
:1002300084B5806384BD18BC559A20938000909348
:10024000810010928B0010928A0084E084B9809122
:100250008000806380938000109289001092880053
:10026000219A80E88FBF9093680080E180936C00B2
:0802700088B9FFCFF894FFCF1D
:00000001FF
